{
  "_format": "hh-sol-artifact-1",
  "contractName": "ForAndWhileLoops",
  "sourceName": "contracts/ForAndWhileLoops.sol",
  "abi": [
    {
      "inputs": [],
      "name": "loops",
      "outputs": [],
      "stateMutability": "pure",
      "type": "function"
    },
    {
      "inputs": [
        {
          "internalType": "uint256",
          "name": "_n",
          "type": "uint256"
        }
      ],
      "name": "sumFor",
      "outputs": [
        {
          "internalType": "uint256",
          "name": "",
          "type": "uint256"
        }
      ],
      "stateMutability": "pure",
      "type": "function"
    },
    {
      "inputs": [
        {
          "internalType": "uint256",
          "name": "_n",
          "type": "uint256"
        }
      ],
      "name": "sumWhile",
      "outputs": [
        {
          "internalType": "uint256",
          "name": "",
          "type": "uint256"
        }
      ],
      "stateMutability": "pure",
      "type": "function"
    }
  ],
  "bytecode": "0x608060405234801561001057600080fd5b50610318806100206000396000f3fe608060405234801561001057600080fd5b50600436106100415760003560e01c80635ccda9d014610046578063938b9ceb14610076578063e4e05ee014610080575b600080fd5b610060600480360381019061005b9190610176565b6100b0565b60405161006d91906101ae565b60405180910390f35b61007e6100e6565b005b61009a60048036038101906100959190610176565b610125565b6040516100a791906101ae565b60405180910390f35b6000805b600083146100dd5782816100c891906101c9565b905082806100d590610229565b9350506100b4565b80915050919050565b60005b600a8110156101225760038114156101005761010f565b600581141561010e57610122565b5b808061011a90610253565b9150506100e9565b50565b6000806000600190505b83811161015757808261014291906101c9565b9150808061014f90610253565b91505061012f565b5080915050919050565b600081359050610170816102cb565b92915050565b60006020828403121561018857600080fd5b600061019684828501610161565b91505092915050565b6101a88161021f565b82525050565b60006020820190506101c3600083018461019f565b92915050565b60006101d48261021f565b91506101df8361021f565b9250827fffffffffffffffffffffffffffffffffffffffffffffffffffffffffffffffff038211156102145761021361029c565b5b828201905092915050565b6000819050919050565b60006102348261021f565b915060008214156102485761024761029c565b5b600182039050919050565b600061025e8261021f565b91507fffffffffffffffffffffffffffffffffffffffffffffffffffffffffffffffff8214156102915761029061029c565b5b600182019050919050565b7f4e487b7100000000000000000000000000000000000000000000000000000000600052601160045260246000fd5b6102d48161021f565b81146102df57600080fd5b5056fea264697066735822122037a12f7ca9a86293ca4cc46c0eaa36482b5aa32f58f6233decde60b3e8b56ab264736f6c63430008000033",
  "linkReferences": {},
  "deployedLinkReferences": {}
}