{
  "_format": "hh-sol-artifact-1",
  "contractName": "LocalVariable",
  "sourceName": "contracts/LocalVariable.sol",
  "abi": [
    {
      "inputs": [],
      "name": "b",
      "outputs": [
        {
          "internalType": "bool",
          "name": "",
          "type": "bool"
        }
      ],
      "stateMutability": "view",
      "type": "function"
    },
    {
      "inputs": [],
      "name": "foo",
      "outputs": [],
      "stateMutability": "nonpayable",
      "type": "function"
    },
    {
      "inputs": [],
      "name": "i",
      "outputs": [
        {
          "internalType": "uint256",
          "name": "",
          "type": "uint256"
        }
      ],
      "stateMutability": "view",
      "type": "function"
    },
    {
      "inputs": [],
      "name": "myAddress",
      "outputs": [
        {
          "internalType": "address",
          "name": "",
          "type": "address"
        }
      ],
      "stateMutability": "view",
      "type": "function"
    }
  ],
  "bytecode": "0x608060405234801561001057600080fd5b506102f6806100206000396000f3fe608060405234801561001057600080fd5b506004361061004c5760003560e01c806326b85ee1146100515780634df7e3d01461006f578063c29855781461008d578063e5aa3d5814610097575b600080fd5b6100596100b5565b60405161006691906101a2565b60405180910390f35b6100776100d9565b60405161008491906101bd565b60405180910390f35b6100956100ec565b005b61009f61016f565b6040516100ac91906101d8565b60405180910390f35b60018054906101000a900473ffffffffffffffffffffffffffffffffffffffff1681565b600160009054906101000a900460ff1681565b6000607b905060006101c88261010291906101f3565b915060019050607b60008190555060018060006101000a81548160ff02191690831515021790555060018060016101000a81548173ffffffffffffffffffffffffffffffffffffffff021916908373ffffffffffffffffffffffffffffffffffffffff1602179055505050565b60005481565b61017e81610249565b82525050565b61018d8161025b565b82525050565b61019c81610287565b82525050565b60006020820190506101b76000830184610175565b92915050565b60006020820190506101d26000830184610184565b92915050565b60006020820190506101ed6000830184610193565b92915050565b60006101fe82610287565b915061020983610287565b9250827fffffffffffffffffffffffffffffffffffffffffffffffffffffffffffffffff0382111561023e5761023d610291565b5b828201905092915050565b600061025482610267565b9050919050565b60008115159050919050565b600073ffffffffffffffffffffffffffffffffffffffff82169050919050565b6000819050919050565b7f4e487b7100000000000000000000000000000000000000000000000000000000600052601160045260246000fdfea2646970667358221220fe5a148d9e7ae3b9f9ad21142e32fbb93a466a62b5f22391ae857b677c5489a564736f6c63430008000033",
  "linkReferences": {},
  "deployedLinkReferences": {}
}