{
  "contracts/IfElse.sol": {
    "IfElse": {
      "abi": [
        {
          "inputs": [
            {
              "internalType": "uint256",
              "name": "_x",
              "type": "uint256"
            }
          ],
          "name": "num",
          "outputs": [
            {
              "internalType": "uint256",
              "name": "",
              "type": "uint256"
            }
          ],
          "stateMutability": "pure",
          "type": "function"
        },
        {
          "inputs": [
            {
              "internalType": "uint256",
              "name": "_x",
              "type": "uint256"
            }
          ],
          "name": "ternary",
          "outputs": [
            {
              "internalType": "bool",
              "name": "",
              "type": "bool"
            }
          ],
          "stateMutability": "pure",
          "type": "function"
        }
      ],
      "evm": {
        "bytecode": {
          "linkReferences": {},
          "object": "608060405234801561001057600080fd5b50610246806100206000396000f3fe608060405234801561001057600080fd5b50600436106100365760003560e01c806355278c5b1461003b578063aa228b751461006b575b600080fd5b61005560048036038101906100509190610106565b61009b565b604051610062919061014d565b60405180910390f35b61008560048036038101906100809190610106565b6100c1565b6040516100929190610168565b60405180910390f35b6000806002836100ab9190610199565b146100b75760006100ba565b60015b9050919050565b600060018214156100d557600190506100ec565b60028214156100e757600290506100ec565b600390505b919050565b600081359050610100816101f9565b92915050565b60006020828403121561011857600080fd5b6000610126848285016100f1565b91505092915050565b61013881610183565b82525050565b6101478161018f565b82525050565b6000602082019050610162600083018461012f565b92915050565b600060208201905061017d600083018461013e565b92915050565b60008115159050919050565b6000819050919050565b60006101a48261018f565b91506101af8361018f565b9250826101bf576101be6101ca565b5b828206905092915050565b7f4e487b7100000000000000000000000000000000000000000000000000000000600052601260045260246000fd5b6102028161018f565b811461020d57600080fd5b5056fea2646970667358221220b49077064f71e51efd400e49bec72a5f979e2ab12715a2aa9481ff8134b826fc64736f6c63430008000033",
          "opcodes": "PUSH1 0x80 PUSH1 0x40 MSTORE CALLVALUE DUP1 ISZERO PUSH2 0x10 JUMPI PUSH1 0x0 DUP1 REVERT JUMPDEST POP PUSH2 0x246 DUP1 PUSH2 0x20 PUSH1 0x0 CODECOPY PUSH1 0x0 RETURN INVALID PUSH1 0x80 PUSH1 0x40 MSTORE CALLVALUE DUP1 ISZERO PUSH2 0x10 JUMPI PUSH1 0x0 DUP1 REVERT JUMPDEST POP PUSH1 0x4 CALLDATASIZE LT PUSH2 0x36 JUMPI PUSH1 0x0 CALLDATALOAD PUSH1 0xE0 SHR DUP1 PUSH4 0x55278C5B EQ PUSH2 0x3B JUMPI DUP1 PUSH4 0xAA228B75 EQ PUSH2 0x6B JUMPI JUMPDEST PUSH1 0x0 DUP1 REVERT JUMPDEST PUSH2 0x55 PUSH1 0x4 DUP1 CALLDATASIZE SUB DUP2 ADD SWAP1 PUSH2 0x50 SWAP2 SWAP1 PUSH2 0x106 JUMP JUMPDEST PUSH2 0x9B JUMP JUMPDEST PUSH1 0x40 MLOAD PUSH2 0x62 SWAP2 SWAP1 PUSH2 0x14D JUMP JUMPDEST PUSH1 0x40 MLOAD DUP1 SWAP2 SUB SWAP1 RETURN JUMPDEST PUSH2 0x85 PUSH1 0x4 DUP1 CALLDATASIZE SUB DUP2 ADD SWAP1 PUSH2 0x80 SWAP2 SWAP1 PUSH2 0x106 JUMP JUMPDEST PUSH2 0xC1 JUMP JUMPDEST PUSH1 0x40 MLOAD PUSH2 0x92 SWAP2 SWAP1 PUSH2 0x168 JUMP JUMPDEST PUSH1 0x40 MLOAD DUP1 SWAP2 SUB SWAP1 RETURN JUMPDEST PUSH1 0x0 DUP1 PUSH1 0x2 DUP4 PUSH2 0xAB SWAP2 SWAP1 PUSH2 0x199 JUMP JUMPDEST EQ PUSH2 0xB7 JUMPI PUSH1 0x0 PUSH2 0xBA JUMP JUMPDEST PUSH1 0x1 JUMPDEST SWAP1 POP SWAP2 SWAP1 POP JUMP JUMPDEST PUSH1 0x0 PUSH1 0x1 DUP3 EQ ISZERO PUSH2 0xD5 JUMPI PUSH1 0x1 SWAP1 POP PUSH2 0xEC JUMP JUMPDEST PUSH1 0x2 DUP3 EQ ISZERO PUSH2 0xE7 JUMPI PUSH1 0x2 SWAP1 POP PUSH2 0xEC JUMP JUMPDEST PUSH1 0x3 SWAP1 POP JUMPDEST SWAP2 SWAP1 POP JUMP JUMPDEST PUSH1 0x0 DUP2 CALLDATALOAD SWAP1 POP PUSH2 0x100 DUP2 PUSH2 0x1F9 JUMP JUMPDEST SWAP3 SWAP2 POP POP JUMP JUMPDEST PUSH1 0x0 PUSH1 0x20 DUP3 DUP5 SUB SLT ISZERO PUSH2 0x118 JUMPI PUSH1 0x0 DUP1 REVERT JUMPDEST PUSH1 0x0 PUSH2 0x126 DUP5 DUP3 DUP6 ADD PUSH2 0xF1 JUMP JUMPDEST SWAP2 POP POP SWAP3 SWAP2 POP POP JUMP JUMPDEST PUSH2 0x138 DUP2 PUSH2 0x183 JUMP JUMPDEST DUP3 MSTORE POP POP JUMP JUMPDEST PUSH2 0x147 DUP2 PUSH2 0x18F JUMP JUMPDEST DUP3 MSTORE POP POP JUMP JUMPDEST PUSH1 0x0 PUSH1 0x20 DUP3 ADD SWAP1 POP PUSH2 0x162 PUSH1 0x0 DUP4 ADD DUP5 PUSH2 0x12F JUMP JUMPDEST SWAP3 SWAP2 POP POP JUMP JUMPDEST PUSH1 0x0 PUSH1 0x20 DUP3 ADD SWAP1 POP PUSH2 0x17D PUSH1 0x0 DUP4 ADD DUP5 PUSH2 0x13E JUMP JUMPDEST SWAP3 SWAP2 POP POP JUMP JUMPDEST PUSH1 0x0 DUP2 ISZERO ISZERO SWAP1 POP SWAP2 SWAP1 POP JUMP JUMPDEST PUSH1 0x0 DUP2 SWAP1 POP SWAP2 SWAP1 POP JUMP JUMPDEST PUSH1 0x0 PUSH2 0x1A4 DUP3 PUSH2 0x18F JUMP JUMPDEST SWAP2 POP PUSH2 0x1AF DUP4 PUSH2 0x18F JUMP JUMPDEST SWAP3 POP DUP3 PUSH2 0x1BF JUMPI PUSH2 0x1BE PUSH2 0x1CA JUMP JUMPDEST JUMPDEST DUP3 DUP3 MOD SWAP1 POP SWAP3 SWAP2 POP POP JUMP JUMPDEST PUSH32 0x4E487B7100000000000000000000000000000000000000000000000000000000 PUSH1 0x0 MSTORE PUSH1 0x12 PUSH1 0x4 MSTORE PUSH1 0x24 PUSH1 0x0 REVERT JUMPDEST PUSH2 0x202 DUP2 PUSH2 0x18F JUMP JUMPDEST DUP2 EQ PUSH2 0x20D JUMPI PUSH1 0x0 DUP1 REVERT JUMPDEST POP JUMP INVALID LOG2 PUSH5 0x6970667358 0x22 SLT KECCAK256 0xB4 SWAP1 PUSH24 0x64F71E51EFD400E49BEC72A5F979E2AB12715A2AA9481FF DUP2 CALLVALUE 0xB8 0x26 0xFC PUSH5 0x736F6C6343 STOP ADDMOD STOP STOP CALLER "
        },
        "methodIdentifiers": {
          "num(uint256)": "aa228b75",
          "ternary(uint256)": "55278c5b"
        }
      }
    }
  }
}