{
  "contracts/ForAndWhileLoops.sol": {
    "ForAndWhileLoops": {
      "abi": [
        {
          "inputs": [],
          "name": "loops",
          "outputs": [],
          "stateMutability": "pure",
          "type": "function"
        },
        {
          "inputs": [
            {
              "internalType": "uint256",
              "name": "_n",
              "type": "uint256"
            }
          ],
          "name": "sumFor",
          "outputs": [
            {
              "internalType": "uint256",
              "name": "",
              "type": "uint256"
            }
          ],
          "stateMutability": "pure",
          "type": "function"
        },
        {
          "inputs": [
            {
              "internalType": "uint256",
              "name": "_n",
              "type": "uint256"
            }
          ],
          "name": "sumWhile",
          "outputs": [
            {
              "internalType": "uint256",
              "name": "",
              "type": "uint256"
            }
          ],
          "stateMutability": "pure",
          "type": "function"
        }
      ],
      "evm": {
        "bytecode": {
          "linkReferences": {},
          "object": "608060405234801561001057600080fd5b50610318806100206000396000f3fe608060405234801561001057600080fd5b50600436106100415760003560e01c80635ccda9d014610046578063938b9ceb14610076578063e4e05ee014610080575b600080fd5b610060600480360381019061005b9190610176565b6100b0565b60405161006d91906101ae565b60405180910390f35b61007e6100e6565b005b61009a60048036038101906100959190610176565b610125565b6040516100a791906101ae565b60405180910390f35b6000805b600083146100dd5782816100c891906101c9565b905082806100d590610229565b9350506100b4565b80915050919050565b60005b600a8110156101225760038114156101005761010f565b600581141561010e57610122565b5b808061011a90610253565b9150506100e9565b50565b6000806000600190505b83811161015757808261014291906101c9565b9150808061014f90610253565b91505061012f565b5080915050919050565b600081359050610170816102cb565b92915050565b60006020828403121561018857600080fd5b600061019684828501610161565b91505092915050565b6101a88161021f565b82525050565b60006020820190506101c3600083018461019f565b92915050565b60006101d48261021f565b91506101df8361021f565b9250827fffffffffffffffffffffffffffffffffffffffffffffffffffffffffffffffff038211156102145761021361029c565b5b828201905092915050565b6000819050919050565b60006102348261021f565b915060008214156102485761024761029c565b5b600182039050919050565b600061025e8261021f565b91507fffffffffffffffffffffffffffffffffffffffffffffffffffffffffffffffff8214156102915761029061029c565b5b600182019050919050565b7f4e487b7100000000000000000000000000000000000000000000000000000000600052601160045260246000fd5b6102d48161021f565b81146102df57600080fd5b5056fea264697066735822122037a12f7ca9a86293ca4cc46c0eaa36482b5aa32f58f6233decde60b3e8b56ab264736f6c63430008000033",
          "opcodes": "PUSH1 0x80 PUSH1 0x40 MSTORE CALLVALUE DUP1 ISZERO PUSH2 0x10 JUMPI PUSH1 0x0 DUP1 REVERT JUMPDEST POP PUSH2 0x318 DUP1 PUSH2 0x20 PUSH1 0x0 CODECOPY PUSH1 0x0 RETURN INVALID PUSH1 0x80 PUSH1 0x40 MSTORE CALLVALUE DUP1 ISZERO PUSH2 0x10 JUMPI PUSH1 0x0 DUP1 REVERT JUMPDEST POP PUSH1 0x4 CALLDATASIZE LT PUSH2 0x41 JUMPI PUSH1 0x0 CALLDATALOAD PUSH1 0xE0 SHR DUP1 PUSH4 0x5CCDA9D0 EQ PUSH2 0x46 JUMPI DUP1 PUSH4 0x938B9CEB EQ PUSH2 0x76 JUMPI DUP1 PUSH4 0xE4E05EE0 EQ PUSH2 0x80 JUMPI JUMPDEST PUSH1 0x0 DUP1 REVERT JUMPDEST PUSH2 0x60 PUSH1 0x4 DUP1 CALLDATASIZE SUB DUP2 ADD SWAP1 PUSH2 0x5B SWAP2 SWAP1 PUSH2 0x176 JUMP JUMPDEST PUSH2 0xB0 JUMP JUMPDEST PUSH1 0x40 MLOAD PUSH2 0x6D SWAP2 SWAP1 PUSH2 0x1AE JUMP JUMPDEST PUSH1 0x40 MLOAD DUP1 SWAP2 SUB SWAP1 RETURN JUMPDEST PUSH2 0x7E PUSH2 0xE6 JUMP JUMPDEST STOP JUMPDEST PUSH2 0x9A PUSH1 0x4 DUP1 CALLDATASIZE SUB DUP2 ADD SWAP1 PUSH2 0x95 SWAP2 SWAP1 PUSH2 0x176 JUMP JUMPDEST PUSH2 0x125 JUMP JUMPDEST PUSH1 0x40 MLOAD PUSH2 0xA7 SWAP2 SWAP1 PUSH2 0x1AE JUMP JUMPDEST PUSH1 0x40 MLOAD DUP1 SWAP2 SUB SWAP1 RETURN JUMPDEST PUSH1 0x0 DUP1 JUMPDEST PUSH1 0x0 DUP4 EQ PUSH2 0xDD JUMPI DUP3 DUP2 PUSH2 0xC8 SWAP2 SWAP1 PUSH2 0x1C9 JUMP JUMPDEST SWAP1 POP DUP3 DUP1 PUSH2 0xD5 SWAP1 PUSH2 0x229 JUMP JUMPDEST SWAP4 POP POP PUSH2 0xB4 JUMP JUMPDEST DUP1 SWAP2 POP POP SWAP2 SWAP1 POP JUMP JUMPDEST PUSH1 0x0 JUMPDEST PUSH1 0xA DUP2 LT ISZERO PUSH2 0x122 JUMPI PUSH1 0x3 DUP2 EQ ISZERO PUSH2 0x100 JUMPI PUSH2 0x10F JUMP JUMPDEST PUSH1 0x5 DUP2 EQ ISZERO PUSH2 0x10E JUMPI PUSH2 0x122 JUMP JUMPDEST JUMPDEST DUP1 DUP1 PUSH2 0x11A SWAP1 PUSH2 0x253 JUMP JUMPDEST SWAP2 POP POP PUSH2 0xE9 JUMP JUMPDEST POP JUMP JUMPDEST PUSH1 0x0 DUP1 PUSH1 0x0 PUSH1 0x1 SWAP1 POP JUMPDEST DUP4 DUP2 GT PUSH2 0x157 JUMPI DUP1 DUP3 PUSH2 0x142 SWAP2 SWAP1 PUSH2 0x1C9 JUMP JUMPDEST SWAP2 POP DUP1 DUP1 PUSH2 0x14F SWAP1 PUSH2 0x253 JUMP JUMPDEST SWAP2 POP POP PUSH2 0x12F JUMP JUMPDEST POP DUP1 SWAP2 POP POP SWAP2 SWAP1 POP JUMP JUMPDEST PUSH1 0x0 DUP2 CALLDATALOAD SWAP1 POP PUSH2 0x170 DUP2 PUSH2 0x2CB JUMP JUMPDEST SWAP3 SWAP2 POP POP JUMP JUMPDEST PUSH1 0x0 PUSH1 0x20 DUP3 DUP5 SUB SLT ISZERO PUSH2 0x188 JUMPI PUSH1 0x0 DUP1 REVERT JUMPDEST PUSH1 0x0 PUSH2 0x196 DUP5 DUP3 DUP6 ADD PUSH2 0x161 JUMP JUMPDEST SWAP2 POP POP SWAP3 SWAP2 POP POP JUMP JUMPDEST PUSH2 0x1A8 DUP2 PUSH2 0x21F JUMP JUMPDEST DUP3 MSTORE POP POP JUMP JUMPDEST PUSH1 0x0 PUSH1 0x20 DUP3 ADD SWAP1 POP PUSH2 0x1C3 PUSH1 0x0 DUP4 ADD DUP5 PUSH2 0x19F JUMP JUMPDEST SWAP3 SWAP2 POP POP JUMP JUMPDEST PUSH1 0x0 PUSH2 0x1D4 DUP3 PUSH2 0x21F JUMP JUMPDEST SWAP2 POP PUSH2 0x1DF DUP4 PUSH2 0x21F JUMP JUMPDEST SWAP3 POP DUP3 PUSH32 0xFFFFFFFFFFFFFFFFFFFFFFFFFFFFFFFFFFFFFFFFFFFFFFFFFFFFFFFFFFFFFFFF SUB DUP3 GT ISZERO PUSH2 0x214 JUMPI PUSH2 0x213 PUSH2 0x29C JUMP JUMPDEST JUMPDEST DUP3 DUP3 ADD SWAP1 POP SWAP3 SWAP2 POP POP JUMP JUMPDEST PUSH1 0x0 DUP2 SWAP1 POP SWAP2 SWAP1 POP JUMP JUMPDEST PUSH1 0x0 PUSH2 0x234 DUP3 PUSH2 0x21F JUMP JUMPDEST SWAP2 POP PUSH1 0x0 DUP3 EQ ISZERO PUSH2 0x248 JUMPI PUSH2 0x247 PUSH2 0x29C JUMP JUMPDEST JUMPDEST PUSH1 0x1 DUP3 SUB SWAP1 POP SWAP2 SWAP1 POP JUMP JUMPDEST PUSH1 0x0 PUSH2 0x25E DUP3 PUSH2 0x21F JUMP JUMPDEST SWAP2 POP PUSH32 0xFFFFFFFFFFFFFFFFFFFFFFFFFFFFFFFFFFFFFFFFFFFFFFFFFFFFFFFFFFFFFFFF DUP3 EQ ISZERO PUSH2 0x291 JUMPI PUSH2 0x290 PUSH2 0x29C JUMP JUMPDEST JUMPDEST PUSH1 0x1 DUP3 ADD SWAP1 POP SWAP2 SWAP1 POP JUMP JUMPDEST PUSH32 0x4E487B7100000000000000000000000000000000000000000000000000000000 PUSH1 0x0 MSTORE PUSH1 0x11 PUSH1 0x4 MSTORE PUSH1 0x24 PUSH1 0x0 REVERT JUMPDEST PUSH2 0x2D4 DUP2 PUSH2 0x21F JUMP JUMPDEST DUP2 EQ PUSH2 0x2DF JUMPI PUSH1 0x0 DUP1 REVERT JUMPDEST POP JUMP INVALID LOG2 PUSH5 0x6970667358 0x22 SLT KECCAK256 CALLDATACOPY LOG1 0x2F PUSH29 0xA9A86293CA4CC46C0EAA36482B5AA32F58F6233DECDE60B3E8B56AB264 PUSH20 0x6F6C634300080000330000000000000000000000 "
        },
        "methodIdentifiers": {
          "loops()": "938b9ceb",
          "sumFor(uint256)": "e4e05ee0",
          "sumWhile(uint256)": "5ccda9d0"
        }
      }
    }
  }
}