{
  "_format": "hh-sol-artifact-1",
  "contractName": "ViewAndPoreFunctions",
  "sourceName": "contracts/ViewAndPureFunctions.sol",
  "abi": [
    {
      "inputs": [
        {
          "internalType": "uint256",
          "name": "x",
          "type": "uint256"
        }
      ],
      "name": "addTwoNum",
      "outputs": [
        {
          "internalType": "uint256",
          "name": "",
          "type": "uint256"
        }
      ],
      "stateMutability": "view",
      "type": "function"
    },
    {
      "inputs": [
        {
          "internalType": "uint256",
          "name": "x",
          "type": "uint256"
        },
        {
          "internalType": "uint256",
          "name": "y",
          "type": "uint256"
        }
      ],
      "name": "addTwoNum",
      "outputs": [
        {
          "internalType": "uint256",
          "name": "",
          "type": "uint256"
        }
      ],
      "stateMutability": "pure",
      "type": "function"
    },
    {
      "inputs": [],
      "name": "num",
      "outputs": [
        {
          "internalType": "uint256",
          "name": "",
          "type": "uint256"
        }
      ],
      "stateMutability": "view",
      "type": "function"
    },
    {
      "inputs": [],
      "name": "pureFunc",
      "outputs": [
        {
          "internalType": "uint256",
          "name": "",
          "type": "uint256"
        }
      ],
      "stateMutability": "pure",
      "type": "function"
    },
    {
      "inputs": [],
      "name": "viewFunc",
      "outputs": [
        {
          "internalType": "uint256",
          "name": "",
          "type": "uint256"
        }
      ],
      "stateMutability": "view",
      "type": "function"
    }
  ],
  "bytecode": "0x608060405234801561001057600080fd5b506102db806100206000396000f3fe608060405234801561001057600080fd5b50600436106100575760003560e01c8063231e18a91461005c5780632b79ebb71461007a5780634e70b1dc146100aa5780635ae28b20146100c85780637f2857b6146100f8575b600080fd5b610064610116565b60405161007191906101e4565b60405180910390f35b610094600480360381019061008f9190610170565b61011f565b6040516100a191906101e4565b60405180910390f35b6100b2610136565b6040516100bf91906101e4565b60405180910390f35b6100e260048036038101906100dd9190610199565b61013c565b6040516100ef91906101e4565b60405180910390f35b610100610152565b60405161010d91906101e4565b60405180910390f35b60006001905090565b60008160005461012f91906101ff565b9050919050565b60005481565b6000818361014a91906101ff565b905092915050565b60008054905090565b60008135905061016a8161028e565b92915050565b60006020828403121561018257600080fd5b60006101908482850161015b565b91505092915050565b600080604083850312156101ac57600080fd5b60006101ba8582860161015b565b92505060206101cb8582860161015b565b9150509250929050565b6101de81610255565b82525050565b60006020820190506101f960008301846101d5565b92915050565b600061020a82610255565b915061021583610255565b9250827fffffffffffffffffffffffffffffffffffffffffffffffffffffffffffffffff0382111561024a5761024961025f565b5b828201905092915050565b6000819050919050565b7f4e487b7100000000000000000000000000000000000000000000000000000000600052601160045260246000fd5b61029781610255565b81146102a257600080fd5b5056fea2646970667358221220ef604121914ad7ff3b1cf1c81a000cfc0cbd3adb35866dfd160847fe3f63f43f64736f6c63430008000033",
  "linkReferences": {},
  "deployedLinkReferences": {}
}