{
  "_format": "hh-sol-artifact-1",
  "contractName": "GlobalVariables",
  "sourceName": "contracts/GlobalVariables.sol",
  "abi": [
    {
      "inputs": [],
      "name": "globalVars",
      "outputs": [
        {
          "internalType": "address",
          "name": "",
          "type": "address"
        },
        {
          "internalType": "uint256",
          "name": "",
          "type": "uint256"
        },
        {
          "internalType": "uint256",
          "name": "",
          "type": "uint256"
        }
      ],
      "stateMutability": "view",
      "type": "function"
    }
  ],
  "bytecode": "0x608060405234801561001057600080fd5b50610128806100206000396000f3fe6080604052348015600f57600080fd5b506004361060285760003560e01c80637e6230f314602d575b600080fd5b60336049565b6040516040939291906087565b60405180910390f35b60008060008033905060004290506000439050828282955095509550505050909192565b60748160b8565b82525050565b60818160e8565b82525050565b6000606082019050609a6000830186606d565b60a56020830185607a565b60b06040830184607a565b949350505050565b600060c18260c8565b9050919050565b600073ffffffffffffffffffffffffffffffffffffffff82169050919050565b600081905091905056fea2646970667358221220cd0ff31a93058e2d0dab94e05f84f400519ba6b682e380661ed0e4ef77e40afc64736f6c63430008000033",
  "linkReferences": {},
  "deployedLinkReferences": {}
}