{
  "_format": "hh-sol-artifact-1",
  "contractName": "StateVariables",
  "sourceName": "contracts/StateVariables.sol",
  "abi": [
    {
      "inputs": [],
      "name": "myUint",
      "outputs": [
        {
          "internalType": "uint256",
          "name": "",
          "type": "uint256"
        }
      ],
      "stateMutability": "view",
      "type": "function"
    }
  ],
  "bytecode": "0x6080604052607b60005534801561001557600080fd5b5060b3806100246000396000f3fe6080604052348015600f57600080fd5b506004361060285760003560e01c806306540f7e14602d575b600080fd5b60336047565b604051603e9190605a565b60405180910390f35b60005481565b6054816073565b82525050565b6000602082019050606d6000830184604d565b92915050565b600081905091905056fea2646970667358221220aa19cf7158e70c7d7d86fb5268a47e82cecf8466c3dbbe8b2bbeef89463dd56a64736f6c63430008000033",
  "linkReferences": {},
  "deployedLinkReferences": {}
}