{
  "_format": "hh-sol-artifact-1",
  "contractName": "FunctionIntro",
  "sourceName": "contracts/FunctionIntro.sol",
  "abi": [
    {
      "inputs": [
        {
          "internalType": "uint256",
          "name": "a",
          "type": "uint256"
        },
        {
          "internalType": "uint256",
          "name": "b",
          "type": "uint256"
        }
      ],
      "name": "addTwoNumber",
      "outputs": [
        {
          "internalType": "uint256",
          "name": "",
          "type": "uint256"
        }
      ],
      "stateMutability": "pure",
      "type": "function"
    },
    {
      "inputs": [
        {
          "internalType": "int256",
          "name": "a",
          "type": "int256"
        },
        {
          "internalType": "int256",
          "name": "b",
          "type": "int256"
        }
      ],
      "name": "subTwoNumber",
      "outputs": [
        {
          "internalType": "int256",
          "name": "",
          "type": "int256"
        }
      ],
      "stateMutability": "pure",
      "type": "function"
    }
  ],
  "bytecode": "0x608060405234801561001057600080fd5b50610353806100206000396000f3fe608060405234801561001057600080fd5b50600436106100365760003560e01c80639e85fb681461003b578063bf80d9541461006b575b600080fd5b61005560048036038101906100509190610132565b61009b565b60405161006291906101a7565b60405180910390f35b610085600480360381019061008091906100f6565b6100b6565b604051610092919061018c565b60405180910390f35b60008082846100aa91906101c2565b90508091505092915050565b600081836100c49190610218565b905092915050565b6000813590506100db816102ef565b92915050565b6000813590506100f081610306565b92915050565b6000806040838503121561010957600080fd5b6000610117858286016100cc565b9250506020610128858286016100cc565b9150509250929050565b6000806040838503121561014557600080fd5b6000610153858286016100e1565b9250506020610164858286016100e1565b9150509250929050565b610177816102ac565b82525050565b610186816102b6565b82525050565b60006020820190506101a1600083018461016e565b92915050565b60006020820190506101bc600083018461017d565b92915050565b60006101cd826102b6565b91506101d8836102b6565b9250827fffffffffffffffffffffffffffffffffffffffffffffffffffffffffffffffff0382111561020d5761020c6102c0565b5b828201905092915050565b6000610223826102ac565b915061022e836102ac565b9250827f800000000000000000000000000000000000000000000000000000000000000001821260008412151615610269576102686102c0565b5b827f7fffffffffffffffffffffffffffffffffffffffffffffffffffffffffffffff0182136000841216156102a1576102a06102c0565b5b828203905092915050565b6000819050919050565b6000819050919050565b7f4e487b7100000000000000000000000000000000000000000000000000000000600052601160045260246000fd5b6102f8816102ac565b811461030357600080fd5b50565b61030f816102b6565b811461031a57600080fd5b5056fea264697066735822122028568e2c6d428a465148abd61d2e09ae03fed323183ec6eb17f5f0378e2c32b364736f6c63430008000033",
  "linkReferences": {},
  "deployedLinkReferences": {}
}