{
  "_format": "hh-sol-artifact-1",
  "contractName": "Constants",
  "sourceName": "contracts/Constants.sol",
  "abi": [
    {
      "inputs": [],
      "name": "MY_ADDRESS",
      "outputs": [
        {
          "internalType": "address",
          "name": "",
          "type": "address"
        }
      ],
      "stateMutability": "view",
      "type": "function"
    },
    {
      "inputs": [],
      "name": "MY_UINT",
      "outputs": [
        {
          "internalType": "uint256",
          "name": "",
          "type": "uint256"
        }
      ],
      "stateMutability": "view",
      "type": "function"
    }
  ],
  "bytecode": "0x608060405234801561001057600080fd5b5061015a806100206000396000f3fe608060405234801561001057600080fd5b50600436106100365760003560e01c80631f6649e31461003b5780633a756cec14610059575b600080fd5b610043610077565b60405161005091906100cd565b60405180910390f35b61006161007c565b60405161006e91906100b2565b60405180910390f35b607b81565b735b38da6a701c568545dcfcb03fcb875f56beddc481565b61009d816100e8565b82525050565b6100ac8161011a565b82525050565b60006020820190506100c76000830184610094565b92915050565b60006020820190506100e260008301846100a3565b92915050565b60006100f3826100fa565b9050919050565b600073ffffffffffffffffffffffffffffffffffffffff82169050919050565b600081905091905056fea2646970667358221220c2e5fa2b267d1eb9d8712b27b3255a7dc41745fa00dee38ce08bb208cd6ce57464736f6c63430008000033",
  "linkReferences": {},
  "deployedLinkReferences": {}
}