{
  "_format": "hh-sol-artifact-1",
  "contractName": "DefaultValue",
  "sourceName": "contracts/DefaultValue.sol",
  "abi": [
    {
      "inputs": [],
      "name": "addr",
      "outputs": [
        {
          "internalType": "address",
          "name": "",
          "type": "address"
        }
      ],
      "stateMutability": "view",
      "type": "function"
    },
    {
      "inputs": [],
      "name": "b",
      "outputs": [
        {
          "internalType": "bool",
          "name": "",
          "type": "bool"
        }
      ],
      "stateMutability": "view",
      "type": "function"
    },
    {
      "inputs": [],
      "name": "b32",
      "outputs": [
        {
          "internalType": "bytes32",
          "name": "",
          "type": "bytes32"
        }
      ],
      "stateMutability": "view",
      "type": "function"
    },
    {
      "inputs": [],
      "name": "i",
      "outputs": [
        {
          "internalType": "int256",
          "name": "",
          "type": "int256"
        }
      ],
      "stateMutability": "view",
      "type": "function"
    },
    {
      "inputs": [],
      "name": "u",
      "outputs": [
        {
          "internalType": "uint256",
          "name": "",
          "type": "uint256"
        }
      ],
      "stateMutability": "view",
      "type": "function"
    }
  ],
  "bytecode": "0x608060405234801561001057600080fd5b5061029f806100206000396000f3fe608060405234801561001057600080fd5b50600436106100575760003560e01c80634df7e3d01461005c578063767800de1461007a578063c6a898c514610098578063e5aa3d58146100b6578063f8aab238146100d4575b600080fd5b6100646100f2565b60405161007191906101a1565b60405180910390f35b610082610103565b60405161008f9190610186565b60405180910390f35b6100a0610129565b6040516100ad91906101f2565b60405180910390f35b6100be61012f565b6040516100cb91906101d7565b60405180910390f35b6100dc610135565b6040516100e991906101bc565b60405180910390f35b60008054906101000a900460ff1681565b600360009054906101000a900473ffffffffffffffffffffffffffffffffffffffff1681565b60015481565b60025481565b60045481565b6101448161020d565b82525050565b6101538161021f565b82525050565b6101628161022b565b82525050565b61017181610235565b82525050565b6101808161025f565b82525050565b600060208201905061019b600083018461013b565b92915050565b60006020820190506101b6600083018461014a565b92915050565b60006020820190506101d16000830184610159565b92915050565b60006020820190506101ec6000830184610168565b92915050565b60006020820190506102076000830184610177565b92915050565b60006102188261023f565b9050919050565b60008115159050919050565b6000819050919050565b6000819050919050565b600073ffffffffffffffffffffffffffffffffffffffff82169050919050565b600081905091905056fea2646970667358221220b6181fdcb5834832335d2f18766db4c94c29f96aec5a7588a3c19efd12e383f564736f6c63430008000033",
  "linkReferences": {},
  "deployedLinkReferences": {}
}