{
  "_format": "hh-sol-artifact-1",
  "contractName": "IfElse",
  "sourceName": "contracts/IfElse.sol",
  "abi": [
    {
      "inputs": [
        {
          "internalType": "uint256",
          "name": "_x",
          "type": "uint256"
        }
      ],
      "name": "num",
      "outputs": [
        {
          "internalType": "uint256",
          "name": "",
          "type": "uint256"
        }
      ],
      "stateMutability": "pure",
      "type": "function"
    },
    {
      "inputs": [
        {
          "internalType": "uint256",
          "name": "_x",
          "type": "uint256"
        }
      ],
      "name": "ternary",
      "outputs": [
        {
          "internalType": "bool",
          "name": "",
          "type": "bool"
        }
      ],
      "stateMutability": "pure",
      "type": "function"
    }
  ],
  "bytecode": "0x608060405234801561001057600080fd5b50610246806100206000396000f3fe608060405234801561001057600080fd5b50600436106100365760003560e01c806355278c5b1461003b578063aa228b751461006b575b600080fd5b61005560048036038101906100509190610106565b61009b565b604051610062919061014d565b60405180910390f35b61008560048036038101906100809190610106565b6100c1565b6040516100929190610168565b60405180910390f35b6000806002836100ab9190610199565b146100b75760006100ba565b60015b9050919050565b600060018214156100d557600190506100ec565b60028214156100e757600290506100ec565b600390505b919050565b600081359050610100816101f9565b92915050565b60006020828403121561011857600080fd5b6000610126848285016100f1565b91505092915050565b61013881610183565b82525050565b6101478161018f565b82525050565b6000602082019050610162600083018461012f565b92915050565b600060208201905061017d600083018461013e565b92915050565b60008115159050919050565b6000819050919050565b60006101a48261018f565b91506101af8361018f565b9250826101bf576101be6101ca565b5b828206905092915050565b7f4e487b7100000000000000000000000000000000000000000000000000000000600052601260045260246000fd5b6102028161018f565b811461020d57600080fd5b5056fea2646970667358221220b49077064f71e51efd400e49bec72a5f979e2ab12715a2aa9481ff8134b826fc64736f6c63430008000033",
  "linkReferences": {},
  "deployedLinkReferences": {}
}