{
  "_format": "hh-sol-artifact-1",
  "contractName": "Counter",
  "sourceName": "contracts/Counter.sol",
  "abi": [
    {
      "inputs": [],
      "name": "count",
      "outputs": [
        {
          "internalType": "int256",
          "name": "",
          "type": "int256"
        }
      ],
      "stateMutability": "view",
      "type": "function"
    },
    {
      "inputs": [],
      "name": "decrement",
      "outputs": [],
      "stateMutability": "nonpayable",
      "type": "function"
    },
    {
      "inputs": [],
      "name": "increment",
      "outputs": [],
      "stateMutability": "nonpayable",
      "type": "function"
    }
  ],
  "bytecode": "0x60806040526000805534801561001457600080fd5b50610275806100246000396000f3fe608060405234801561001057600080fd5b50600436106100415760003560e01c806306661abd146100465780632baeceb714610064578063d09de08a1461006e575b600080fd5b61004e610078565b60405161005b91906100c3565b60405180910390f35b61006c61007e565b005b610076610099565b005b60005481565b60016000808282546100909190610172565b92505081905550565b60016000808282546100ab91906100de565b92505081905550565b6100bd81610206565b82525050565b60006020820190506100d860008301846100b4565b92915050565b60006100e982610206565b91506100f483610206565b9250817f7fffffffffffffffffffffffffffffffffffffffffffffffffffffffffffffff0383136000831215161561012f5761012e610210565b5b817f800000000000000000000000000000000000000000000000000000000000000003831260008312161561016757610166610210565b5b828201905092915050565b600061017d82610206565b915061018883610206565b9250827f8000000000000000000000000000000000000000000000000000000000000000018212600084121516156101c3576101c2610210565b5b827f7fffffffffffffffffffffffffffffffffffffffffffffffffffffffffffffff0182136000841216156101fb576101fa610210565b5b828203905092915050565b6000819050919050565b7f4e487b7100000000000000000000000000000000000000000000000000000000600052601160045260246000fdfea264697066735822122074674f5ea0ffea5c685599aa96c40c67b296cc201abec579a2add5a55294cab864736f6c63430008000033",
  "linkReferences": {},
  "deployedLinkReferences": {}
}