{
  "_format": "hh-sol-artifact-1",
  "contractName": "ValueType",
  "sourceName": "contracts/ValueTypes.sol",
  "abi": [
    {
      "inputs": [],
      "name": "addr",
      "outputs": [
        {
          "internalType": "address",
          "name": "",
          "type": "address"
        }
      ],
      "stateMutability": "view",
      "type": "function"
    },
    {
      "inputs": [],
      "name": "b",
      "outputs": [
        {
          "internalType": "bool",
          "name": "",
          "type": "bool"
        }
      ],
      "stateMutability": "view",
      "type": "function"
    },
    {
      "inputs": [],
      "name": "b32",
      "outputs": [
        {
          "internalType": "bytes32",
          "name": "",
          "type": "bytes32"
        }
      ],
      "stateMutability": "view",
      "type": "function"
    },
    {
      "inputs": [],
      "name": "i",
      "outputs": [
        {
          "internalType": "int256",
          "name": "",
          "type": "int256"
        }
      ],
      "stateMutability": "view",
      "type": "function"
    },
    {
      "inputs": [],
      "name": "maxint",
      "outputs": [
        {
          "internalType": "int256",
          "name": "",
          "type": "int256"
        }
      ],
      "stateMutability": "view",
      "type": "function"
    },
    {
      "inputs": [],
      "name": "minint",
      "outputs": [
        {
          "internalType": "int256",
          "name": "",
          "type": "int256"
        }
      ],
      "stateMutability": "view",
      "type": "function"
    },
    {
      "inputs": [],
      "name": "u",
      "outputs": [
        {
          "internalType": "uint256",
          "name": "",
          "type": "uint256"
        }
      ],
      "stateMutability": "view",
      "type": "function"
    }
  ],
  "bytecode": "0x608060405260016000806101000a81548160ff021916908315150217905550607b6001557fffffffffffffffffffffffffffffffffffffffffffffffffffffffffffffff856002557f80000000000000000000000000000000000000000000000000000000000000006003557f7fffffffffffffffffffffffffffffffffffffffffffffffffffffffffffffff600455735b38da6a701c568545dcfcb03fcb875f56beddc4600560006101000a81548173ffffffffffffffffffffffffffffffffffffffff021916908373ffffffffffffffffffffffffffffffffffffffff1602179055506000801b6006553480156100f757600080fd5b5061030d806101076000396000f3fe608060405234801561001057600080fd5b506004361061007d5760003560e01c8063c6a898c51161005b578063c6a898c5146100dc578063dc1f768c146100fa578063e5aa3d5814610118578063f8aab238146101365761007d565b80632c23de69146100825780634df7e3d0146100a0578063767800de146100be575b600080fd5b61008a610154565b6040516100979190610245565b60405180910390f35b6100a861015a565b6040516100b5919061020f565b60405180910390f35b6100c661016b565b6040516100d391906101f4565b60405180910390f35b6100e4610191565b6040516100f19190610260565b60405180910390f35b610102610197565b60405161010f9190610245565b60405180910390f35b61012061019d565b60405161012d9190610245565b60405180910390f35b61013e6101a3565b60405161014b919061022a565b60405180910390f35b60045481565b60008054906101000a900460ff1681565b600560009054906101000a900473ffffffffffffffffffffffffffffffffffffffff1681565b60015481565b60035481565b60025481565b60065481565b6101b28161027b565b82525050565b6101c18161028d565b82525050565b6101d081610299565b82525050565b6101df816102a3565b82525050565b6101ee816102cd565b82525050565b600060208201905061020960008301846101a9565b92915050565b600060208201905061022460008301846101b8565b92915050565b600060208201905061023f60008301846101c7565b92915050565b600060208201905061025a60008301846101d6565b92915050565b600060208201905061027560008301846101e5565b92915050565b6000610286826102ad565b9050919050565b60008115159050919050565b6000819050919050565b6000819050919050565b600073ffffffffffffffffffffffffffffffffffffffff82169050919050565b600081905091905056fea264697066735822122087b4ea7c487577afb0f0f3eb8014df69e95c29f832066a2f6b00c6617f29da9d64736f6c63430008000033",
  "linkReferences": {},
  "deployedLinkReferences": {}
}